:020000040801F1
:100000000000022089BA0108B1480108B54801087A
:10001000B9480108BD480108C148010885BA01086E
:1000200085BA010885BA010885BA0108DD550108BD
:1000300085BA010885BA0108015601085541010831
:1000400085BA010885BA010885BA010885BA010890
:1000500085BA010885BA0108AD3C0108B33C010826
:10006000B93C0108BF3C0108C53C0108393B010807
:10007000493B0108593B0108693B0108793B0108EC
:10008000893B0108993B010885BA010885BA010836
:1000900085BA010885BA010885BA0108CB3C010878
:1000A000E5440108F1440108FD440108094501083F
:1000B00015450108214501082D450108B93F0108F2
:1000C000D13F0108C53F0108DD3F010885BA01089D
:1000D00085BA01083D47010849470108554701080D
:1000E000D33C010885BA010885BA01085D450108BD
:1000F000694501087545010881450108A93B0108CA
:1001000085BA010885BA01083945010885BA010890
:10011000614701086D47010845450108514501083F
:10012000B93B0108C93B0108D93B0108E93B01087B
:10013000F93B010885BA010885BA010885BA0108AA
:1001400085BA010885BA010885BA0108E559010890
:10015000093C0108193C0108293C010885BA01083D
:1001600085BA010885BA010885BA010885BA01086F
:1001700085BA010885BA010885BA010885BA01085F
:1001800085BA010885BA01080C4BDA68D1030ED490
:10019000D868C2060DD4D96811F0EF0F0BD1DA6818
:1001A00002F00203002B0CBF05200C207047012039
:1001B0007047032070470B20704700BF003C02408F
:1001C00013B50446FFF7E0FF0CE000230193FF2383
:1001D00001E00198431E019301990029F9D1FFF72D
:1001E000D3FF013C012803D1002CEED1062002E010
:1001F000002C08BF06201CBD70B5044641B1012982
:1002000008D0022914BF4FF440764FF4007603E083
:100210000E4601E04FF4807640F6FF70FFF7D0FF06
:10022000052820D1104D286920F440732B612A69DC
:1002300016432E61296921F0F80028612B6943F0EB
:10024000020214432C61296941F48030286140F690
:10025000FF70FFF7B5FF2B6923F002022A612969BD
:1002600021F0F8032B6170BD003C024000F178439F
:10027000B3F5803F05DA002BBCBF074BC3189B13B7
:1002800006E0B3F5003F02DB5B14043300E0042317
:10029000D8000321FFF7B0BFFF3F00F8134B00F178
:1002A00078429A4270B504460E461CD81F20FFF7CC
:1002B00087FF052818D10E4D296921F44070286167
:1002C0002B6943F480722A61296941F00100286199
:1002D0001F202680FFF774FF062805D02B6923F026
:1002E00001022A6170BD072070BD00BFFEFF07003C
:1002F000003C0240044B1A69002A03DA034904480F
:1003000059605860704700BF003C024023016745B8
:10031000AB89EFCD014B9868704700BF10E000E05B
:10032000014B1868704700BF0C2D002038B5FFF74F
:10033000F7FF0446FFF7EEFF054600BF00BFFFF7DB
:10034000EFFF8442F3D109480368DB0303D5FFF7CD
:10035000E1FF01340546C5F524354035A822B5FB3B
:10036000F2F54FF47A7101FB045038BD10E000E063
:1003700081627047C16270473430013940F82120F2
:100380007047410101F184400123C0F88032704779
:1003900004F0B2BC70470000254A264B106040F2C2
:1003A000DC514FF47A72196059609960DA601A6111
:1003B0005A619A61DA611A625A62002307E00121E8
:1003C0001D4A03EB010C42F823105FFA8CF38342C1
:1003D000F5DB1A4B40F2DC5119605960996000233B
:1003E00008E0174A02EB83014FF07E5C5A1CC1F80B
:1003F00000C0D3B28342F4DB002308E0114A02EBD1
:1004000083014FF07E5C0133C1F800C0DBB2834250
:10041000F4DB002308E00C4A02EB83014FF07E5C22
:100420000133C1F800C0DBB28342F4DB704700BF88
:100430002C2B002078280020C0280020E02A002053
:100440003C2B0020002B002034260020084B094ABA
:1004500053F8203052F821209B1A00EE103ADFEDBD
:10046000067AB8EEC07A67EE276A16EE900A7047F1
:1004700078280020E02A00200BD7A33B2A4B07EE68
:10048000101A196801EE101AD2ED040AB8EE410AEA
:1004900007EE900A254830EE606ADFED256A0378A2
:1004A00086EE265A82ED040A77EEC75A33B1D2EDB2
:1004B000051A45EE851AC2ED051A01E000205061CB
:1004C000D2ED066A92ED056AF1EE667AB4EEE76A5D
:1004D000F1EE10FA08D4B4EE666AF1EE10FACCBF71
:1004E000F0EE667AF0EE467AD2ED034A92ED024AD9
:1004F00077EE643ADFED0F2A63EE843A65EE222A46
:1005000092ED013AC3EEA22A82ED037A92ED007ACF
:10051000C2ED057A67EE837A45EE877A37EEA22A36
:1005200012EE100A704700BF28280020992A0020E8
:10053000002474490000C8420C490D4B086807EEBE
:10054000100AF8EE477A00225A61C3ED047A1A6362
:10055000C3ED0B7ADA64C3ED127A9A66C3ED197AA9
:10056000C3F88420C3ED207A704700BF28280020FC
:100570001429002091ED005A9FED203A05EE900AD3
:100580009FED1F2A65EE037A45EE827AD1ED014A8E
:10059000DFED1C2A44EEA27A91ED024A44EE037A82
:1005A000D1ED031A41EE827A91ED047A9FED161A8D
:1005B00047EE017AD1ED056ADFED140A46EEE07AE6
:1005C00091ED066A9FED120A46EE007A91ED073A28
:1005D000DFED103A43EE637A086081ED034AC1ED26
:1005E000024A81ED015A81ED076AC1ED066A81ED8B
:1005F000057AC1ED047A17EE900A7047D58111BBD8
:100600007932F83A1A1B5E3B382F5740200B89404D
:100610000A771C404CF3063F0D4B0E4A0020186031
:1006200058609860D860186158619861D861186204
:1006300058629862D862186358639863D8631A64E2
:100640005A649A64DA641A655A659A65DA6570477D
:10065000182A00206DE71CC14160704710B50446A0
:1006600004F0EAFD204604F094FE01462046FFF720
:10067000F3FF00232372204610BD2DE9F04104460C
:100680000D460079012117461E4604F065FF2079CA
:10069000002104F021FF204629463A463346BDE8B2
:1006A000F04104F0EFBDF8B504460D460079002195
:1006B0001F46164604F050FF207A60F07F031D436A
:1006C000E9B2204604F05CFE3D4606E020460021EB
:1006D00004F056FE06F8010B013D002DF6DC2079F2
:1006E0000121BDE8F84004F037BF07B501230DF143
:1006F0000702FFF7D8FF9DF807000EBDF8B50446C6
:100700000D46007900211F46164604F025FF237A86
:100710001D43E9B2204604F033FE3D4605E0204685
:1007200016F8011B04F02CFE013D002DF7DC2079AA
:100730000121BDE8F84004F00FBF07B502AB03F894
:10074000012D1A460123FFF7D9FF0EBD02480521EE
:1007500001220323FFF791BF0C2A002010B5064C9D
:10076000204604F0ADFD012120460A460323BDE8E2
:100770001040FFF782BF00BF0C2A002008B50346D7
:100780000A4604481946FFF7D8FF0120BDE8084093
:1007900004F096BE0C2A002010B501460448FFF76D
:1007A000A4FF0446012004F08BFE204610BD00BFCC
:1007B0000C2A00201E4B10B51C78002C36D10122CB
:1007C0001A70FFF7C3FF7520FFF7E6FF00F07E0009
:1007D00068282BD1174B186840F0030119606B2073
:1007E0008021FFF7CBFF642004F06AFE6A2010210D
:1007F000FFF7C4FF6B200321FFF7C0FF6C202146E9
:10080000FFF7BCFF19202146FFF7B8FF1A2003218C
:10081000FFF7B4FF1B201021FFF7B0FF1C200821B9
:10082000FFF7ACFFBDE81040FFF798BF10BD00BF59
:10083000F8280020682B002001EBD171491004E05A
:100840000378427843700270023011F1FF31F7D221
:100850007047000010B5064C06483B2122460E2387
:10086000FFF721FF20460E21BDE81040FFF7E4BF4F
:10087000D02500200C2A0020074810B5074C01683D
:1008800022684B1C9342036004D0FFF7E3FF236808
:100890005A1C226010BD00BFF0280020DC27002079
:1008A00010B5074C0748216802684B1C934223602F
:1008B00004D0FFF7CFFF23685A1C226010BD00BF91
:1008C00040280020DC270020024A034B1A60FFF773
:1008D00071BF00BF58A00B3A802B002008B5FFF76E
:1008E00025FD124BDFED127A93ED027AB4EEE77A32
:1008F000F1EE10FA0F4B06DC9FED0F0AB4EEC07A52
:10090000F1EE10FA10D519680C4A411A01EE901A4E
:100910009FED0B1AF8EE616AD2ED000AC6EE816A0D
:1009200047EE260AC2ED000A186008BD082900201B
:1009300035FA8E3CB42A002035FA8EBC24260020DD
:100940000024744910B5FFF7ABFF0D4B0D491C682F
:10095000B1F908000C4A24181C6010605C68B1F9F9
:100960000A00B1F90C105060201858609868916026
:1009700041189960054B1878421C1A7010BD00BFD1
:10098000842B0020D0250020FC280020B82A00203D
:100990007FB51F4B1F4D1A6895F800C0596892FB30
:1009A000FCF41D4A10685668241A91FBFCF0301ABA
:1009B0009E689168019496FBFCFC0022CCEB01013F
:1009C0001A605A609A602A7001EE904A134A144BDA
:1009D000029000EE900A06EE901AD2ED007AB8EE80
:1009E000E11AB8EEE00AB8EEE67A21EE271A20EE18
:1009F000270A67EE277A039183ED001A83ED010A37
:100A0000C3ED027A04B0BDE87040FFF767BF00BFD6
:100A1000842B0020B82A0020A42A0020802B00204C
:100A20000829002070B5B2B000243194154D22E0A1
:100A3000FFF710FF144B14B9B3F9083005E0012C8F
:100A40000CBFB3F90A30B3F90C304DF806300A2068
:100A5000043604F035FDC42EEAD13121684631AAAE
:100A600002F0E4FF319B192B07DC0134E4B2032CC4
:100A700045F8040F03D00026DAE7002000E001204B
:100A800032B070BDA02A0020D0250020FFF792BE12
:100A900008B5FFF7F1FE0C4B0C4A1868B2F900C01C
:100AA00000EB0C0119605868B2F90210B2F904C0E9
:100AB0009A68401802EB0C0158609960044B187852
:100AC000421C1A7008BD00BF68280020D0250020F5
:100AD0002C280020F0B5114A114C17781148124902
:100AE00000231646114D5A5992FBF7F200EE102AD8
:100AF00004340430F8EEC06A94ED007AD0ED007A48
:100B000046EE877A002217EE90CA5A5104330C2B16
:100B100041F804CFE6D13270F0BD00BF2C28002090
:100B20009C280020942B00202C2B002068280020DB
:100B300010B5002408E0FFF78DFEFFF7A9FF40F68F
:100B4000C41004F0B7FC0134B4F5C87FF3D12048D9
:100B500020490023204C1A5900EE902A9FED1F0ACD
:100B6000B8EEE07A043087EE007AD0ED007A67EED6
:100B7000277A17EE902A41F8042F00221A510433E5
:100B80000C2BE7D11649174B17481A7091ED022A22
:100B9000DFED162A72EEC21AD1ED004A32EE211AAA
:100BA000D1ED013AB5EEC01AF1EE10FA104BB1EEEC
:100BB000644AB1EE633AD8BFB1EE411A80ED004A03
:100BC00080ED013AC0ED021A83ED001A10BD00BF9E
:100BD0009C2800202C2B0020682800200000C843FF
:100BE000302B00202C280020982B00206DE71CC102
:100BF0001428002010B54620002104F06DFC0024CC
:100C0000462004F00101013404F0A6FCE4B23220D5
:100C100004F056FC0A2CF3D14520002104F05CFCC2
:100C20004520002104F098FC4520002104F054FCEC
:100C30004520002104F090FC2020032104F04CFC0E
:100C40001020032104F048FC2420032104F044FC7C
:100C50001120032104F040FC2520032104F03CFC7A
:100C60002220032104F038FC0321232004F034FC6B
:100C70003720002104F030FC4020002104F02CFC3F
:100C80004120002104F028FC3420002104F024FC41
:100C9000034817211622BDE8104004F07FBC00BFB6
:100CA000CC2B0020034B04490448054A19605860C6
:100CB0009A607047A0280020A8E49C3A17F19DBADA
:100CC00091459ABA38B5074D074C2A682068131A1F
:100CD000B3F57A7F05D3FFF735FEFFF7D9FE296814
:100CE000216038BD28280020E82700200448054A54
:100CF000002303604360836013605360704700BF4C
:100D0000F4290020F82A00202DE9F84F2DED068B5C
:100D1000DDED108A08EE103A68EEA82A48EE082A9F
:100D20009DED119ADDED127A49EE092AB6EE003AF0
:100D300027EE833ADFF83092864C874F874D884EF6
:100D4000DFF828A2DFF828B2DFF8288289ED003A20
:100D500009EE900A12EE900A0AEE902A0AEE101A94
:100D600009F0C8FE0AF09AFF0AF0FAF902EE100A3A
:100D700088EE825AD8F80000C9EE023AD4ED000A93
:100D800097ED006AD5ED006A96ED000A66EE261A28
:100D900026EEA01A50EE201A06EE001A20EE000AE7
:100DA00016EE060A88EE024A06EEE60A00EEA00AF1
:100DB00071EE015A20EE058A15EEA38ADAED007A6B
:100DC0009BED007A48EE077A71EEA14A25EE849AEF
:100DD00064EEA38A18EE101A50EE048A14EE859A77
:100DE000CAED007A02F046FE434610B10022CAF86E
:100DF0000020DFF88491DFF88481D9ED004A9BED73
:100E0000007A48EE874A83ED008AC9ED004AD8F897
:100E1000000018EE901A02F02DFE434610B100209B
:100E2000C9F80000DFF858819BED004A98ED005AA0
:100E300009EE045ADFF84CB1C3ED008A88ED005A80
:100E4000DBF8000019EE101A02F014FE43465A4671
:100E500008B10021196082ED009A424AD2ED000AE1
:100E600040EE89AA40EE889A00EEA8AAD3ED003A97
:100E7000D9ED006A9AED006A7AEEA3AAD5ED004A90
:100E80003AEE26AA97ED007A79EE869A96ED005A08
:100E900064EEAA5A24EE8A0A47EE295A94ED001A03
:100EA00015EE690A41EE4A5A2F4B25EE2A4A01EE09
:100EB0006A0A17EE0A4A93ED003AF0EE452A65EE0B
:100EC0000A7A45EE832A01EE294AB0EE472A47EE18
:100ED0002A7A00EE032AF0EE641A44EEE97A44EE30
:100EE000031A22EEA26A02EE026A07EE831A01EEEC
:100EF000A16A01EE016A87ED002A16EE100AC6ED1E
:100F0000002AC5ED001A84ED001A09F0F3FD0AF07D
:100F1000C5FE0AF025F9D7ED006A05EE900AD6ED78
:100F2000000AD5ED003A94ED000AC6EEA56AC0EEBF
:100F3000A50AC3EEA53AC0EE255AC7ED006AC6ED74
:100F4000000AC5ED003AC4ED005ABDEC068BBDE8C1
:100F5000F88F00BF6428002024280020602800208B
:100F60005C280020EC280020B02800209C2A0020CB
:100F7000BC280020342800203028002038280020F9
:100F800018280020E02700202DE9F8433C4C3D4E76
:100F90003D4D3E4F2DED048BD4ED005A96ED008A69
:100FA000D5ED007AD7ED008A68EE255A48EEA75AAB
:100FB000B7EE009A35EEA55A15EE100A09F09AFD23
:100FC00068EE084A48EEA84A804634EEA44A8946AC
:100FD00079EE443A13EE900A09F08CFD02460B4676
:100FE000404649460AF058FE0AF0BAF897ED006A02
:100FF000D4ED002AD5ED006A96ED003A66EE222A7D
:1010000056EE832ADFF8888032EEA22AC8F8000064
:1010100012EE100A09F06EFD0AF0EAFD0AF0A0F8DF
:10102000D6ED008AD7ED001A95ED007A94ED008A8E
:1010300068EEA11A48EE071AC8F8040031EEA11AAA
:1010400011EE100A09F056FD68EE080A48EEA80AEB
:10105000044630EEA00A0D4679EE407A17EE900A6B
:1010600009F048FD02460B46204629460AF014FEC8
:101070000AF076F8C8F80800BDEC048BBDE8F883E8
:101080006428002060280020242800205C280020FC
:10109000F429002008B5FFF729FE0F4B0F4910482F
:1010A000104A4FF07E5CC3F800C000230B60036061
:1010B00013600D490D480E4A0B60036013600D4923
:1010C0000D480E4A0B60036013600D480D490E4A2F
:1010D0000E4B08601A6008BD242800205C28002000
:1010E00060280020642800209C2A0020302800204E
:1010F000182800203428002038280020E02700206D
:10110000CDCC4C3EEC2800206F12033ABC280020C6
:101110001FB5DDF818E0DDF81CC0074CCDF800E085
:10112000CDF804C024680294FFF7EEFD04B0BDE8DA
:101130001040FFF729BF00BF400C00202DE9F0410F
:10114000069DD0610027976213606E1E1D68B30074
:1011500005F1340808EB0300556014469060D7622F
:10116000918216624FF0010202FA03F84FEA48003A
:1011700060622168087902F0DBFF1A4AB0FBF2F3E3
:10118000581E4FF6FF71A862E9622F60EA6822F0EC
:101190000103EB60286A20EA080129622B6A626A6F
:1011A000012E23EA02032B62D4BF05F1180305F1D7
:1011B0001C0306F001001968C000FF2616FA00F2B1
:1011C00021EA02061E601A68612111FA00F6164330
:1011D0001E60296A012348EA010028622B60BDE8ED
:1011E000F08100BF40420F0073B500241148124A3D
:1011F000235C1B01D5186E68BEB1D058297B0A222A
:1012000002F09CFD697B0D4B0091302202FB043201
:10121000204640F2DC513346FFF790FF084A697BD5
:1012200052F82420304603F0AFF80134082CDDD109
:101230007CBD00BF3BC90108AC1900205C26002022
:10124000000C002043681A6A416A4A401A627047DB
:10125000416883681B680A6A416A1142816A10B555
:1012600014BF0022012291B10AB1C38213E0C48AE3
:10127000191B1FFA81FCACF560735C1FA1B240F230
:10128000AE44A14294BFA0F814C0826203E012B140
:101290000122C3828262BDE81040FFF7D3BF000085
:1012A000024B302202FB0030FFF7D2BF5C26002049
:1012B0000720FFF7F5BF0620FFF7F2BF0520FFF775
:1012C000EFBF0420FFF7ECBF0320FFF7E9BF0220C8
:1012D000FFF7E6BF0120FFF7E3BF0020FFF7E0BF05
:1012E00008B5FFF759F8BDE80840FFF77DBF0000DB
:1012F000064B1B5C072B06DC054A302000FB032154
:10130000888A80B2704740F2DC50704728C90108D3
:101310005C26002070B500242DED028B33E03048B0
:10132000A6008119204691ED008AFFF7E1FF2D4BC1
:1013300002EE900A9A1992ED002AB8EEE27A55F878
:101340002420294B294808EE072A01EE102AFDEE39
:10135000C21A9E1911EE901AF8EEE17AF8EEC10A5F
:1013600040F82410326817EE900A10EE901A02F03E
:1013700045FB00EE100ABDEEC06A16EE100A45F8F5
:1013800024000134E4B21A4D2A681A4D9442C6DB97
:10139000194C94ED007A00231849EC585858184914
:1013A000241A04EE904A04EE100AF8EEE46AF8EE0D
:1013B000C43A46EE873ABDEEE33A13EE100A5850AF
:1013C00004330C2BE8D1032305E055F8230041F842
:1013D00023000133DBB29342F7DBBDEC028B70BD1F
:1013E0003C2B0020002B002034260020E02500208C
:1013F0002C2B0020C0280020A02A0020E02A00205A
:101400007828002038B50B4D00240EE00A4A0B481E
:1014100014F802C055F8042F00EB0C1392B259686F
:101420000868597BFEF7A8FF013405490B689C4208
:10143000ECDB38BDF027002030C90108AC190020D2
:10144000902B002038B5054600240BE0084B0948D6
:10145000E15C00EB011301345A68597B1068AAB2B1
:10146000FEF78AFF044802689442EFDB38BD00BFF4
:1014700030C90108AC190020902B0020F8B51D4E92
:101480000728C8BF0820306000241CE01A4F1B4DFD
:10149000E75D05EB071501346968087902F048FE3D
:1014A000174B6A68B0FBF3F0411E89B21068FEF773
:1014B0005FFF6B6840F6C4111868FEF75BFF3846A3
:1014C000072104F009F83568AC42DFDB002409E0AD
:1014D000094A0A4BA15C03EB011001344268106811
:1014E000FEF74FFFAC42F3DB4FF47A70BDE8F840F3
:1014F000FFF7A8BF902B002030C90108AC190020CD
:1015000040420F0038B5054600240FE040F24C4041
:10151000FFF798FFFA2003F0D3FF4FF47A70FFF73C
:1015200091FFFA2003F0CCFF0134E4B2AC42EDD1DC
:1015300038BD000070B50C4C0E46616A154682B28B
:10154000086894F82D10FEF717FF6069617F006846
:10155000B2B2FEF711FF6368617B1868AAB2BDE8FA
:101560007040FEF709BF00BFAC1900202DE9F04123
:1015700000241A4F1A4E14F8078006EB08150134A0
:101580006968087902F0D4FD164B6A68B0FBF3F085
:10159000411E89B21068FEF7EBFE6B6844F62061CD
:1015A0001868FEF7E7FE0721404603F095FF032C7D
:1015B000DFD1002417F804C006EB0C100134426898
:1015C0001068FEF7DEFE032CF4D140F2DC50014639
:1015D0000246BDE8F041FFF7ADBF00BF38C90108C2
:1015E000AC19002040420F0006EE100A5048036874
:1015F0005048012B70B506EE901A05EE902A4E4D1C
:101600004E4C4F494F4B504A72D12D684F4E006897
:1016100005EE105A96ED000AF8EEC57A46EE007A0D
:1016200007EE100AB8EEC76AF4EEC67AF1EE10FAC9
:101630000AD44748006800EE900AB8EEE06AF4EE7B
:10164000C67AF1EE10FA02DDBDEEC66A01E0BDEE2B
:10165000E76A40480968D0ED001A206802EE100AD7
:10166000F8EEC27A46EEA17A01EE101AF8EEC16ADF
:10167000F4EEE67AF1EE10FA0AD43748016802EE89
:10168000901AF8EEE26AF4EEE67AF1EE10FA02DD74
:10169000FDEEE66A01E0FDEEE76A1B682F4912687D
:1016A00003EE903A91ED003AF8EEE37A45EE837A54
:1016B00005EE902AB8EEE57AF4EEC77AF1EE10FA6C
:1016C0000AD4274A106804EE100AB8EEC47AF4EE81
:1016D000C77AF1EE10FA02DDBDEEC77A01E0BDEE89
:1016E000E77A16EE100A16EE901A17EE102A1AE094
:1016F0002D680068854204DB154800688542B8BF44
:101700002846246809688C4204DB134909688C4226
:10171000B8BF21461B681268934204DB104A126866
:101720009342B8BF1A46BDE87040FFF703BF00BF41
:10173000282B0020082A0020EC270020E427002086
:10174000C8250020542800207C2B00200C260020D7
:101750001C280020942B002010260020CC250020DF
:10176000B02A002008B5FFF701FF0020014602461D
:10177000BDE80840FFF738BF0D480E490E4A0F4B31
:1017800070B50468086811681A680D4BC0EB040C4A
:1017900020180CEB0106C1EB0C054418411AB61ACF
:1017A000AD18A4188A1A1E605D60DC609A6070BD76
:1017B000340C0020F02700206C2B0020EC2A0020A5
:1017C000F42700202DE9F84F2DED028B4048414DC4
:1017D0000378414C414EDFF830A1012B404B47D1FB
:1017E0001868DFF82891DFF8288159F82020D8F808
:1017F0000030D71A03EE107A9FED3A8AF8EEC32A2A
:10180000394F3A4A396822EE882A12EE100AFEF75A
:1018100035FE2968D8F804307A68834659F82100E3
:10182000C51A01EE905AB8EEE11A82F0004121EE9D
:10183000087A2F4A17EE100AFEF720FE21682D4A7B
:1018400005465846FEF71AFE00EE900A61682A4ADD
:10185000FDEEE07A284681F00041C6ED007AFEF701
:101860000DFE00EE100AFDEEC06ACAED006A2AE025
:10187000224F18780021FEF7E9FDD4ED000AD7EDDC
:10188000007A20EEA70A1E4A10EE101AFEF7F6FDA7
:1018900006EE900ABDEEE66A2878012186ED006A20
:1018A000FEF7D4FD94ED015AD7ED005A65EE654A76
:1018B000144A14EE901AFEF7E1FD04EE100AFDEE54
:1018C000C43ACAED003ABDEC028BBDE8F88F00BF08
:1018D000642B00203C0C0020082900206C2B0020E9
:1018E0004C280020A69BC43AF42900206829002037
:1018F00084290020BC290020D8290020200C0020A9
:101900001429002030290020F0270020782800200A
:10191000E02A00201B4B1A781B4B032A0CD0052A07
:1019200019D0012A0CBF4FF4FA624FF47A721A6090
:101930005A609A60DA6023E014480268B2F5966F44
:10194000B4BF11464FF49661B2F57A7FACBF0A4638
:101950004FF47A72EBE700220D495158B1F57A7FC6
:1019600005DBB1F5966FA8BF4FF4966101E04FF427
:101970007A7199500432102AEED1064B01221A7066
:10198000FFF740BD042A0020F4270020300C00207F
:10199000BC2A0020702B0020074A1368B3F57A7F19
:1019A00005DB40F23A718B42A8BF0B4601E04FF4D1
:1019B0007A731360704700BF340C0020154A164B31
:1019C000106816494FF4FA6210B59A60DA601A602E
:1019D0005A60134B086048608860C86093E806004E
:1019E00098689142B8BF1146DA688142B8BF014693
:1019F0009142B8BF11460022B1F5FA6F05DD9C583F
:101A0000C1F5FA6C04EB0C0098500432102AF3D1A3
:101A100010BD00BFE8280020D02A00201426002096
:101A2000F4270020F8B55C485C4E03785C4C012B31
:101A30007ED15C4A5C495D4B92ED007ADFED5C7AC9
:101A40005C4A67EE277A9FED5C6A92ED007A77EE4A
:101A5000465A77EEC76AF4EEE57AF1EE10FAC1ED78
:101A6000007AC3ED006A05D89FED540A76EE806ACD
:101A7000C3ED006A77EE060AF4EEE07AF1EE10FAB2
:101A800007DB93ED002ADFED4D1A32EE611A83ED8C
:101A9000001AF06840F24C4C604542DD3F488168D6
:101AA000A1F5B860C11E32290ED945490023C2ED07
:101AB000007AC1F8A030434A4349236000201070E7
:101AC000424B0A681A6033E093ED007AF5EE002A83
:101AD000B4EEE27AF1EE10FA06D5BDEE003AB4EEBD
:101AE000C37AF1EE10FA1EDC3649384D0878364FCD
:101AF00068B93B682F683648DF1B874218D9012038
:101B0000C2ED007A002208702B60226010E017EE10
:101B1000101A00202F4AFEF7B1FC396820602960B6
:101B200006E0C2ED007A264A00232360C2F8A03006
:101B3000294BB2689968501A07EE900AD4ED004A12
:101B4000F8EEE73ADFED257A9FED254A64EEA77AB5
:101B500043EE847A9FED237AF4EEC77AF1EE10FA21
:101B60000BD49FED215AF4EE457AF1EE10FACCBF7A
:101B700015EE100A17EE900A01E017EE100A1B4945
:101B80001B4A8968FEF77AFC05EE900A1948BDEEFB
:101B9000E56A80ED006AF8BD982A002078280020C8
:101BA000B4280020242600203C28002058280020AB
:101BB000E12E6542AC280020000034430000B4430D
:101BC000142900202028002028280020F4280020A4
:101BD00020A10700A0290020E02A002035FA8E3C31
:101BE0000BD7A33BDB0F49C0DB0F4940082900207E
:101BF0004C290020EC2A0020F8B5FFF7E3FDFFF7A1
:101C000011FF2D482D4D03682D4E13F0010F06D105
:101C100034682C4955F824200A60FFF7BDFE2A4C91
:101C2000237823B1294A107808B1FFF7A5FDFFF703
:101C3000C5FE336855F8235040F24B418D4224498C
:101C400001DD002315E02348234E244F0268367837
:101C50003D780023CA502EB1002D14BF10464FF41A
:101C6000FA6000E010461E4FD8510433102BF1D11A
:101C7000E7E71C48CA581D58954204DB184A9A5891
:101C80009542B8BF2A46C2500433102BF1D12178B7
:101C900009B9FFF73FFE94F800C0BCF1010F09D16C
:101CA0000A4B93F800E0BEF1010F03D1BDE8F84004
:101CB000FFF7A8BBF8BD00BFB82800207828002097
:101CC000280C0020340C002008260020702B002057
:101CD00014260020E8280020992A0020642B0020E8
:101CE000D02A0020F427002038B585B229460748BD
:101CF00001F05DFE0024A91C60F30F0489B20348C3
:101D000001F055FE60F31F44204638BDA42B00208F
:101D100038B504468DB22946A2B2054801F04FFEFF
:101D2000A91C034889B2220CBDE8384001F047BE27
:101D3000A42B00200B4A38B51C2404FB00240846C1
:101D40000D46FFF7D1FF2060281DFFF7CDFF606033
:101D500005F10800FFF7C8FF0023A060E36063619E
:101D600038BD00BF1429002038B5094B1C2404FBE2
:101D700000340D462068FFF7CBFF6068291DFFF790
:101D8000C7FFA06805F10801BDE83840FFF7C0BFF4
:101D900014290020F8B54349434C444E444F454D67
:101DA000616521674449454A4548464BA6606662DD
:101DB000A763C4F8B060C4F8CC60434F65604FF0CF
:101DC0007E5625620E6000252260E261C4F88C0018
:101DD000C4F89030C4F8A820C4F8C420A565E5650F
:101DE0006567A567E7632564C4F89450C4F8AC50F0
:101DF000C4F8C850FEF756FF344B3548354A0360E7
:101E00003549A36163632365E366C4F88830C4F889
:101E1000A430C4F8C030C4F8DC3016602F4B304A10
:101E200040F27E4008601A602E482F492F4A08234E
:101E3000013BDBB240F8046F41F8045F42F8046FE5
:101E4000002BF5D12A4A2B494FF07C5090602A484C
:101E50002A4A0B700123037017602949294A2A482E
:101E60000B60026029492A4B2A4A2B4819600260FC
:101E70002A4B2B492B4A40F2DC5018600860106056
:101E8000294B2A492A4A4FF47A701860086010607A
:101E9000284B2949294A4FF4FA60186008601060FD
:101EA000F8BD00BF00006040142900200000AFC34F
:101EB0000000484300001643200C00200000C842E8
:101EC00000004040CDCCCC3D0000A04000007A4452
:101ED000CC2A0020A02A0020E82800201428002076
:101EE0000AE81CC1382B0020FC2A002030260020E4
:101EF00034260020642B0020982A0020742800201B
:101F0000282B002066269F440C26002066261F44AE
:101F1000942B002066269F43CC250020EC27002030
:101F2000E427002054280020082A0020C82500208B
:101F30007C2B00201C28002010260020B02A002026
:101F4000002008B50146FFF7F5FE01202421FFF728
:101F5000F1FE02201821FFF7EDFE03200C21FFF710
:101F6000E9FE04203021FFF7E5FE05203C21FFF7C4
:101F7000E1FE06204821FFF7DDFE54210720FFF790
:101F8000D9FE4FF4A670FFF7AFFE634A10604FF41E
:101F90008C70FFF7A9FE614B614998615863186521
:101FA000D866C3F88800C3F8A400C3F8C000C3F81B
:101FB000DC0008604FF49070FFF796FE04EE100A04
:101FC000584AFDEEC43A4FF49270C2ED003AFFF762
:101FD0008BFE554908604FF49470FFF785FE03EEC1
:101FE000100AFCEEC32A514812EE90CA80F800C0D5
:101FF0004FF49870FFF778FE4D4B18604FF49670D1
:10200000FFF772FE02EE100AFCEEC21A494A11EE08
:10201000901A4FF4C4701170FFF766FE01EE100ABB
:102020004548FDEEC10AC0ED000A4FF4C670FFF747
:102030005BFE424B18604FF4C870FFF755FE404AF4
:1020400010604FF4CA70FFF74FFE3E4908604FF42E
:10205000CC70FFF749FE00EE100A3B4BFDEEC07A54
:102060004FF4CE70C3ED007AFFF73EFE07EE100A84
:10207000364AFDEEC76A4FF4D070C2ED006AFFF732
:1020800033FE06EE100A3249FDEEC65A4FF4D27006
:10209000C1ED005AFFF728FE05EE100A2D48FDEEAF
:1020A000C54AC0ED004A4FF4D470FFF71DFE04EEA0
:1020B000100A294BFDEEC43A4FF4D670C3ED003A36
:1020C000FFF712FE03EE100A244AFDEEC32A4FF476
:1020D000D870C2ED002AFFF707FE02EE100A204971
:1020E000FDEEC21A4FF4DA70C1ED001AFFF7FCFDE5
:1020F00001EE100A1B48FDEEC10AC0ED000A4FF4C4
:10210000DC70FFF7F1FD00EE100A174BFDEEC07A10
:10211000C3ED007A08BD00BF200C00201429002068
:10212000CC2A0020E828002074280020642B0020FE
:1021300014280020982A0020282B00200C2600209C
:10214000942B0020CC250020EC270020E427002041
:1021500054280020082A0020C82500207C2B0020BD
:102160001C28002010260020B02A0020F8B572B6E6
:1021700000200146FFF7F8FD01202421FFF7F4FDC0
:1021800003200C21FFF7F0FD04203021FFF7ECFDC8
:1021900002201821FFF7E8FD05203C21FFF7E4FDB0
:1021A00006204821FFF7E0FD07205421FFF7DCFD62
:1021B0008A498B4F08688B4E8B4D4FF4A671FFF701
:1021C000A7FD8A484FF49E71FFF7A2FD88484FF49F
:1021D000A271FFF79DFD87484FF4A471FFF798FDAA
:1021E00085484FF49C71FFF793FD84484FF49A7132
:1021F000FFF78EFD7D484FF49E71FFF789FD804803
:102200004FF48C710068FFF783FD7E4B4FF48E71A5
:102210001868FFF77DFD002404F19C0157F8040FB6
:10222000FFF776FD04F1A00156F8040FFFF770FDEB
:1022300004F1A40155F8040F0C34FFF769FD602C7C
:10224000EAD1714B1A6804EE102AF8EEC43A4FF442
:10225000907113EE900AFFF75BFD6C4908684FF42C
:102260009271FFF755FD6A4890F800C003EE10CA5E
:10227000F8EE432A4FF4947112EE900AFFF748FDEE
:10228000644B1A7802EE102AF8EE421A4FF4967157
:1022900011EE900AFFF73CFD5F4908684FF4987112
:1022A000FFF736FD5D484FF48A71FFF731FD0020DE
:1022B0004FF4C071FFF72CFD00204FF4C271FFF7FF
:1022C00027FD5748036801EE103AF8EEC10A4FF4B3
:1022D000C47110EE900AFFF71BFD524A4FF4C6710D
:1022E0001068FFF715FD504908684FF4C871FFF7F3
:1022F0000FFD4E484FF4CA710068FFF709FD4C4BC3
:102300001A6800EE102AF8EEC07A4FF4CC7117EE7E
:10231000900AFFF7FDFC4749086807EE100AF8EE3F
:10232000C76A4FF4CE7116EE900AFFF7F1FC424BEC
:102330001A6806EE102AF8EEC65A4FF4D07115EE60
:10234000900AFFF7E5FC3D49086805EE100AF8EE33
:10235000C54A4FF4D27114EE900AFFF7D9FC384BFE
:102360001A6804EE102AF8EEC43A4FF4D47113EE52
:10237000900AFFF7CDFC3349086803EE100AF8EE27
:10238000C32A4FF4D67112EE900AFFF7C1FC2E4B10
:102390001A6802EE102AF8EEC21A4FF4D87111EE44
:1023A000900AFFF7B5FC2949086801EE100AF8EE1B
:1023B000C10A4FF4DA7110EE900AFFF7A9FC244B22
:1023C0001A6800EE102AF8EEC07A4FF4DC7117EEAE
:1023D000900AFFF79DFC62B6F8BD00BF200C0020FC
:1023E000382B0020FC2A002030260020CDCCCC3D0C
:1023F0000000B44200007A43000048C20000484296
:10240000CC2A0020A02A0020E828002074280020E0
:10241000642B0020982A002014280020CDCC4C40AA
:10242000282B00200C260020942B0020CC250020F7
:10243000EC270020E427002054280020082A002050
:10244000C82500207C2B00201C28002010260020FE
:10245000B02A002038B54FF49870FFF745FC114BB7
:10246000114D18604FF4AA70FFF73EFC28604FF43E
:10247000A870FFF739FC0D4C20604FF4AE70FFF7E9
:1024800033FC68604FF4AC70FFF72EFC60604FF4D3
:10249000B270FFF729FCA8604FF4B070FFF724FC7E
:1024A000A06038BD14280020A0280020982B002010
:1024B00038B5144B144D1868144C4FF49871FFF74D
:1024C00027FC28684FF4AA71FFF722FC20684FF41C
:1024D000A871FFF71DFC68684FF4AE71FFF718FC98
:1024E00060684FF4AC71FFF713FCA8684FF4B27149
:1024F000FFF70EFCA0684FF4B071BDE83840FFF75D
:1025000007BC00BF14280020A0280020982B002022
:1025100070B52C4D2C4C286854F8202040F24B43C9
:102520009A420BDC294E3178012907D14FF47A7099
:10253000FEF788FF264A0023337013702968224A69
:1025400054F8210040F24B43984218DC21480168BE
:1025500052F8210040F26C7C604510DD1E48016895
:1025600052F821209A420ADCFEF75CFAFEF7E0FA04
:10257000FFF79EFFFDF7E0FF0320FEF7C3FF29688A
:1025800054F8212040F26C739A4210DD0F4B1878FA
:1025900068B9124A1278012A09D111491A7040F219
:1025A0004C40086048608860C860FDF7C5FF2B6834
:1025B00054F8232040F24C4C624502DD07490120CB
:1025C000087070BD2C0C0020782800200826002000
:1025D000992A00204C2800203C0C0020702B002061
:1025E000F427002038B5FEF795FE242002F054FFB2
:1025F00040F25D15A842224C09D82249224B0622FE
:10260000042505201A602560086007220DE02420BB
:1026100002F042FFA8420AD91A491B4B01220325A6
:1026200000201A60256008600222184B1A601848C2
:10263000226850F8221040F24B4C6145054601DCFF
:10264000FFF766FF134B187858B913490A78012A27
:1026500007D12168114855F821400568AC42C8BF30
:102660001A700F4C0F4D94F800E00123BEF1010FDA
:102670002B7003D0FDF760FF2A78227038BD00BFB1
:10268000280C00204C2800203C0C00202C0C0020A2
:1026900078280020992A002008260020E828002019
:1026A000380C0020642B0020F8B54FF48E70FFF733
:1026B0001BFB0E4B0E4F0F4E0F4D1860002404F104
:1026C0009C00FFF711FB47F8040F04F1A000FFF78F
:1026D0000BFB46F8040F04F1A400FFF705FB0C34D4
:1026E000602C45F8040FEAD1F8BD00BFA02A0020F5
:1026F000382B0020FC2A002030260020014B1868CF
:10270000704700BF24260020F8B5002604460F4677
:10271000067035460F4802F09BFE28B901200136AD
:1027200002F0CEFEF6B206E00A4802F0A4FE6055C2
:102730000135EDB2002625B1601910F8013C3B2BA4
:1027400004D0092E02D8791E8D42E3DB00226255A7
:10275000F8BD00BFC82B00201FB500210B2201A827
:10276000009105F033F868460F21FFF7CDFF68466A
:1027700004F07CFF08F0F4FC05B000BD38B5054658
:10278000002403E0FFF7E8FF0134E4B2AC42F9D1E2
:1027900038BD0000084910B51C2404FB0014FFF7E5
:1027A000DBFF2060FFF7D8FF6060FFF7D5FF002355
:1027B000A060E360636110BD1429002010B50446D9
:1027C000FFF7CAFFDFED0B7A07EE100AB4EE677A67
:1027D000F1EE10FA4FF00000074B04D1074A1C70CD
:1027E0001070012010BD1870054B4FF47A711960FC
:1027F00010BD00BF66E6F642042A0020082600202D
:10280000300C002038B59C4802F022FE002800F071
:10281000BB81994802F02FFE984B18703138292857
:1028200000F2B281DFE810F069016B0170017F01F5
:102830008C01B001B001B001B001B001B001B00134
:10284000B001B001B001B00134003E004F00B00152
:1028500060006C007A0089009B00A400A800B8000A
:10286000BE00BE002A00C000B001B001B001B0013E
:102870005C0161016301B001B0019F01FFF76CFFD2
:10288000FFF76AFFFFF768FFBDE83840FFF764BF56
:102890000020FFF77FFF0120FFF77CFFFFF75CFFC1
:1028A000774B0EE00320FFF775FF0420FFF772FF60
:1028B0000620FFF76FFF0720FFF76CFFFFF74CFFC5
:1028C000704B186038BD0220FFF764FF0520FFF74A
:1028D00061FFFFF741FF00EE100ABCEEC07A6A49C3
:1028E00017EE100A087038BDFFF736FF674A106010
:1028F000FFF732FF07EE900A654BFDEEE77AB7E08F
:10290000FFF72AFF634C2060634C04F12005FFF7BA
:1029100023FF44F8040FAC42F9D138BDFFF71CFF88
:1029200001EE100A5D4BFDEEC10AC3ED000A10EE88
:10293000904AFFF711FF5A4B0DE0FFF70DFF02EE33
:10294000100A5648FDEEC21AC0ED001A11EE904A68
:10295000FFF702FF534B03EB8404206038BDFFF701
:1029600019FAFFF703FCFFF7A3FDFEF75BF8C0E0E1
:10297000BDE83840FEF756B8FFF7EEFE4A4C20603F
:10298000FFF7EAFEFFF7E8FE6060FFF7E5FEFFF7FE
:10299000E3FEA060FFF7E0FEFEF7CAF8BDE83840AE
:1029A000FFF786BD03209CE0FFF7D6FE03EE900AFA
:1029B0003E49BDEEE33A81ED003AFFF7CDFE02EE6F
:1029C000900A3B4BBDEEE22A83ED002AFFF7C4FEDE
:1029D00001EE900A374ABDEEE11A82ED001AFFF7C8
:1029E000BBFE00EE900A3448FDEEE07AC0ED007ABE
:1029F000FFF7B2FE31490860FFF7AEFE304B1860BA
:102A0000FFF7AAFE2F4A1060FFF7A6FE00EE100A9D
:102A10002D49BDEEC07A81ED007AFFF79DFE06EEEE
:102A2000900A2A48BDEEE66A80ED006AFFF794FE40
:102A300005EE900A264BBDEEE55A83ED005AFFF7EE
:102A40008BFE04EE900A234ABDEEE44A82ED004A72
:102A5000FFF782FE03EE900A1F49BDEEE33A81EDD7
:102A6000003AFFF779FE02EE900A1C4BFDEEE27A87
:102A7000C3ED007A38BD00BFC82B0020240C002015
:102A8000200C0020CC2A0020982A00207428002046
:102A9000E8280020A02A002030260020F42A002068
:102AA0003C2B0020002B0020A0280020282B0020F9
:102AB000EC270020E4270020542800200C260020CA
:102AC000942B0020CC250020082A0020C8250020B7
:102AD0007C2B00201C28002010260020B02A00207B
:102AE0000220BDE83840FFF749BE0920F9E7FFF7AB
:102AF0003DFBBDE83840FDF71FBD012000E002208E
:102B0000BDE83840FFF75ABE0320FFF757FE002804
:102B10003AD0FFF721FE04EE900A1C48BDEEE44ACD
:102B200080ED004A38BD0420FFF748FE00282BD076
:102B30001748164B00214FF47A7201701A6038BDA5
:102B40000520FFF73BFEF8B10024FFF705FE05EE78
:102B5000900ABDEEE55A0F4B15EE102AE2500434F0
:102B6000102CF2D138BDFFF7F7FD06EE100AF7EE94
:102B7000006AB4EE666AF1EE10FA074B02D1012149
:102B8000197038BD0020187038BD00BF300C00200F
:102B9000042A0020BC2A00204428002001482C21BF
:102BA00001F0D2BEC82B002008B501460A22034816
:102BB00001F041FFBDE80840FFF7F0BFC82B00203F
:102BC00008B501460A22034801F05CFFBDE8084051
:102BD000FFF7E4BFC82B002038B50546002404E009
:102BE0000020FFF7EDFF0134E4B2AC42F8D138BD6C
:102BF00007B507F07FFF02460B460548022100910A
:102C000001F0FAFF03B05DF804EBFFF7C7BF00BFA8
:102C1000C82B0020074B10B51C2404FB003420688F
:102C2000FFF7E6FF6068FFF7E3FFA068BDE810402C
:102C3000FFF7DEBF14290020844638B50B480C4648
:102C40006146154601F085FE0848094901F081FEFC
:102C5000084803681C4203D10448074901F079FE83
:102C600002482946BDE8384001F083BEC82B002049
:102C700064CB0108682B002043C901080000000054
:102C800013B50A220F21364801F003FF35493448B5
:102C900001F05FFE012430A3D3E900233048009403
:102CA00001F0AFFF2E48304901F053FE2C482F4968
:102CB00001F05FFE2A482E4901F04BFE28482D49BD
:102CC00001F057FE26482C4901F043FE0A22082154
:102CD000234801F0DEFE2248284901F03AFE042193
:102CE0000A221F4801F0D5FE21462548254AFFF754
:102CF000A3FF02212448234AFFF79EFF082123480F
:102D0000204AFFF799FF042121481E4AFFF794FF4C
:102D100010212048204AFFF78FFF20211F481E4A1C
:102D2000FFF78AFF40211E481B4AFFF785FF8021DD
:102D30001C48194AFFF780FF1B48174A4FF480715F
:102D4000FFF77AFF0648194902B0BDE8104001F0CC
:102D500010BE00BFAFF30080000000A099990940A9
:102D6000C82B002048C901085BC9010868C90108CF
:102D700073C9010883C901088AC901089EC90108ED
:102D8000A7C90108B1C90108BAC90108C8C9010821
:102D9000D2C90108DFC9010834CA0108ECC9010819
:102DA000FAC901080ACA01081BCA01082BCA01088E
:102DB000F7B5A94C23786B2B264600F0E8802FD876
:102DC000632B00F0958018D8362B00F024820ED8A3
:102DD000232B00F01B8203D8212B40F029820CE228
:102DE000242B00F0FE81252B40F02282FDE1612B97
:102DF0005ED0622B40F01C8265E0662B00F08C8078
:102E000005D8642B7ED0652B40F012827CE0682BC5
:102E100000F0A880C0F09180692B40F0098229E081
:102E2000722B00F0778110D86E2B00F0118106D83C
:102E30006C2B00F0EE806D2B40F0FA81E8E1702BF6
:102E400000F02C8100F25F8104E1752B00F0B3816A
:102E500006D8732B00F07181742B40F0E981A1E159
:102E6000792B00F0B8817A2B00F0B781762B40F0F7
:102E7000DF81A9E1794C2068FFF7BAFE6068FFF7AF
:102E8000B7FEA068764CFFF7B3FE2068FFF7B0FEF0
:102E90006068FFF7ADFEA068FFF7AAFE0020FFF70D
:102EA0008FFE0020FFF78CFE0020FFF789FE73E104
:102EB0000020FFF7AFFE0120FFF7ACFE694B18685A
:102EC000FFF796FE83E10320FFF7A4FE0420FFF73F
:102ED000A1FE0620FFF79EFE0720FFF79BFE62483B
:102EE000006807F007FE0B460221024600918EE0C3
:102EF0000220FFF78FFE0520FFF78CFE5B4A5C483F
:102F000011785DE10A2060E15A490868FFF770FE18
:102F1000594B5748196853E1584D594C2868FFF7E9
:102F200067FE04F1200554F8040FFFF761FEAC4280
:102F3000F9D10220FFF750FE75E1524C04F1200553
:102F400054F8040F07F0D6FD024606200B46009009
:102F5000474801F051FE2C21454801F0F5FCAC42F8
:102F6000EED160E1484C04F1200554F8040F07F05D
:102F7000C1FD02460B463E480621009101F03CFE91
:102F80002C213B4801F0E0FCAC42EED14BE13F4E3E
:102F90003F4F306807F0AEFD062502460B46344829
:102FA000009501F029FEFFF7F9FD386807F0A2FD52
:102FB00002460B462E48009501F01EFEFFF7EEFD7F
:102FC000706807F097FD02460B462948009501F00E
:102FD00013FEFFF7E3FD786807F08CFD02460B4611
:102FE0002348009501F008FEFFF7D8FDB06807F010
:102FF00081FD02460B461E48009501F0FDFDFFF7DE
:10300000CDFDB86807F076FD009502460B461848DE
:10301000F9E0204C204DFDF73BFD2978266896FB12
:10302000F1F0FFF7CDFD2B786068002690FBF3F000
:103030002660FFF7C5FDA26895F800C0666092FBA8
:10304000FCF10B480A2201F024FDA6602E70EFE08F
:103050000320BAE00420B8E0240C00200829002056
:1030600028260020200C0020CC2A0020982A0020AE
:10307000C82B002074280020E8280020A02A002067
:1030800030260020382B0020FC2A0020A028002019
:10309000982B0020682800202C280020684A1068FF
:1030A000FFF78EFD67490868FFF78AFD664B1868D1
:1030B000FFF786FD65480068FFF782FD644A1068E7
:1030C000FFF796FD63490868FFF792FD624B1868A9
:1030D000FFF78EFD61480068FFF772FD604A1068D7
:1030E000FFF76EFD5F490868FFF76AFD5E4B1868E1
:1030F000FFF766FD5D480068FFF762FD5C4A1068F7
:10310000FFF75EFD63E05B4B5B4819680A2201F044
:1031100085FC7DE0594C2068FFF76AFD6068FFF789
:1031200067FDFFF7EBFA07F0E5FC0246022000908E
:103130000B46514801F065FD7AE051494F4C087843
:10314000FFF732FD2068FFF753FD6068FFF750FD81
:10315000FFF7D4FAFFF74CFD0020FFF731FD002008
:10316000FFF72EFD0024474AA0580434FFF728FD3E
:10317000202CF8D10024444BE0580434FFF720FD04
:10318000102CF8D10420FFF727FD0020FFF718FDD1
:103190003E480078FFF708FD374803B0BDE8F0402F
:1031A00001F0DCBB0024374960580434FFF708FD08
:1031B000202CF8D1F0E70020FFF702FD2E48002177
:1031C0000A2201F066FC23E00920FFF705FD2A48EA
:1031D00001F0C4FB1CE00B2004E00020FFF7F0FC32
:1031E00003E00320FFF7F8FCD6E7234800210A227A
:1031F00003B0BDE8F04001F04CBC012200920EA3E8
:10320000D3E900231C4801F0FCFC01E0FFF738FD86
:10321000582323700CE000241B4820580434FFF787
:10322000CFFC102CF8D1144801F098FB58213170D4
:1032300003B0F0BDAFF30080000000A099990940F1
:10324000282B0020EC270020E42700205428002011
:103250000C260020942B0020CC250020082A0020DA
:10326000C82500207C2B00201C28002010260020D0
:10327000B02A0020682B0020C82B0020F429002051
:103280000826002078280020F4270020642B002046
:1032900010B52C484FF4E13102F0D8F84620002157
:1032A00002F01AF94620002102F056F9FEF748FE16
:1032B0004FF48A70FEF718FDDFED237A07EE100A4F
:1032C000B4EE677AF1EE10FA05D0FEF763FD012443
:1032D000FEF74CFF00E00024FDF78CFC0420FEF715
:1032E000CDF80820FDF7FCFFFFF7DEF9FDF7ECFA5B
:1032F000FDF798FB0028FBD0FDF7C8FB1CB1FDF7DC
:1033000017FCFEF733FFFDF787F9FFF7A3F80F4827
:103310004FF07B51C166C0F88810FDF7BBFEFEF789
:1033200021FA0B4B1A6842F080001860FCF7FEFF90
:10333000084908604620012102F00EF9064B0022E0
:103340001A7010BDC82B0020CDCC4C401429002091
:10335000682B0020742B0020702B0020F0B5214B2F
:10336000214C18682268214F1A60111A00EE101AB9
:10337000DFED1F7AB8EE407A85B0C7EE277A1D4E92
:103380001D4D0024C7ED007AFDF702FBFDF7A2FBFF
:103390001A4A56F8040F6301D118FDF7EBF801340F
:1033A000032C45F8040FF3D1154B164A59680091C8
:1033B000D3F808E0CDF804E0D7F800C0CDF808C095
:1033C000106851681B689268FDF7A2FEFEF714FCB6
:1033D0000D4A50681168926805B0BDE8F040FEF7EC
:1033E00003B900BF782B002028280020400C0020C3
:1033F000002474492C2B002024260020182A0020A9
:103400002826002008290020F4290020094B0A4A18
:1034100019681268501A00EE100ADFED087AB8EE4B
:10342000407A07491A60C7EE277AC1ED007AFFF7A4
:10343000D9B800BF4828002028280020002474495B
:10344000400C002008B50B4A0B4B126819681A6033
:10345000501A00EE100ADFED097AB8EE407A0849FA
:10346000C7EE277AC1ED007AFFF7CCF9BDE8084036
:10347000FFF79EBC28280020F02A00200024744971
:10348000400C0020084B094A19681268501A00EED7
:10349000100ADFED077AB8EE407A06491A60C7EEE7
:1034A000277AC1ED007A7047002A002028280020E2
:1034B00000247449400C002070B51F4C1F4D204E55
:1034C000FCF734FF21682860401A3060FDF7FAFBF2
:1034D000326842F20F739A4226461A4C24D9206869
:1034E000431C2360FFF73AFF2268D20701D4FFF79D
:1034F0008DFF22680A23B2FBF3F003FB102189B190
:10350000114B2A681968114BC1EB020C9C4502D97A
:10351000FFF798FF06E00E480168501A984201D95B
:10352000FFF7B0FF2A6832602368632B02D9054891
:103530000021016070BD00BF742B002028280020EE
:1035400050280020B8280020F02A0020A086010082
:10355000002A002008B5FFF79BFEFFF7ADFFFCE750
:1035600008B504210348FDF779F8FCF7DFFE024BAC
:10357000186008BD0C2A0020F428002010B50C8823
:103580008368A4B24FF6FF7084420B4408D00888C9
:103590001FFA80FC944508D102E00A68013206D186
:1035A00004319942F9D3002010BD832010BD83203F
:1035B00010BD38B50B889BB2581E0C464FF6FD72F5
:1035C00081B2914203D84EF6EE65AB4203D16288D8
:1035D000511C8DB200E000252046FCF747FE05286F
:1035E00005D1A01C2946BDE83840FCF757BE38BDC0
:1035F00070B505460C461646FFF7C0FF60B1284679
:103600002146FFF7D6FF052806D128462146324637
:10361000BDE87040FFF7B2BF70BD0368426819880B
:10362000108889B210B580B219B94FF6FF74A04264
:1036300007D040B94FF6FF7399420CBF10460020E7
:1036400010BD184610BD002010BD70B58568002063
:103650004D19063113E00C884FF6FF73A4B29C425B
:103660000CD094420AD00B1D04E01E88B6B2A642CC
:1036700004D00433AB42F8D3013080B20431A94204
:10368000E9D370BD2DE9F74F9B46836805460C468C
:10369000164601EB030A0F1D03E03A68013203D01E
:1036A00004375745F9D344E0301DA3F102080190D7
:1036B000B04427E0B8F800104FF6FF731FFA81F905
:1036C00099451DD0D9451BD0A31D05E01A881FFAC6
:1036D00082FCCC4514D00433BB42F7D327E038F842
:1036E000023C384699B2FCF7D9FD052805D1B81C33
:1036F0004946FCF7D3FD052801D0054614E0043700
:10370000A8F1040801988045D4D8284631464FF6E0
:10371000FF72FFF76DFF054630B929462046FCF7DA
:10372000BDFD052818BF05462846BDE8FE8F574554
:10373000D5D38125F8E72DE9F04705460E46174613
:10374000FFF76BFF0446002866D0AB6800EB030967
:10375000A9F1020314E0188882B2B2420FD133F803
:10376000021C981E8BB2BB4259D04FF6FF7C6345BA
:1037700008D13946FCF792FD052803D14FE0043B00
:10378000A342E8D804F1040815E0D8F8003001336A
:103790000FD140463946FCF781FD052843D108F199
:1037A00002003146FCF77AFD052808BF0020BDE87D
:1037B000F08708F10408C845E7D321463246284679
:1037C000FFF743FFAB68421C990892B2481E824241
:1037D00028D2D5F80480444508BFD5F800804EF6BD
:1037E000EE614046FCF75AFD05281CD108F10400A3
:1037F0003946FCF753FD052815D108F1060031467E
:10380000FCF74CFD05280ED128464146224633469A
:10381000BDE8F047FFF736BFAB20BDE8F0870020DA
:10382000BDE8F0878120BDE8F08700000449054A23
:103830004FF4804C80E8061084228281704700BFDC
:103840000080000800C0000810B50446FCF752FDD7
:10385000216820460022FFF7CBFE0146B0B9206860
:10386000B0F800C04FF6FF731FFA8CF29A4205D1F0
:10387000FCF714FD052801D0014607E061682046E9
:103880004FF6FF72BDE81040FFF7B2BE084610BD0C
:10389000F8B50446FCF72EFDAB202268A0811788FE
:1038A0006668BFB233884EF6EE618F429BB21CD081
:1038B0004FF6FF75AF4202D0002F31D039E013B977
:1038C0002046114609E08B4209D100213046FCF721
:1038D000E5FC05283ED1216820463A4638E0BB4247
:1038E00039D12046FFF7B0FF34E02BB9114620460E
:1038F00032464FF6FF7319E04FF6FF7293422AD11A
:10390000204631461A46FFF773FE0546A08110BBDC
:1039100020682946FCF7C2FC05281BD1A5811AE0C6
:10392000CBB18B422046314611D12B46FFF7AAFE80
:1039300010E013B92046114609E08B420BD100215B
:103940003046FCF7ABFC052804D1216820462A4606
:10395000FFF74EFEA081A089F8BD70B50D464FF06F
:10396000FF3111808389842B0446164604D1FFF76A
:103970008FFF08B1A08970BD2046FFF74EFEA0B1B1
:10398000A3689A1E131806300BE0B3F800C01FFAA4
:103990008CF1A94204D133F8020C3080002070BDB4
:1039A000043B8342F1D2822070BDAB2070BD07B5CD
:1039B0000DF10602FFF7D1FFBDF806000EBD8389A9
:1039C000842B70B504460D46164604D1FFF760FF00
:1039D00008B1A08970BD4FF6FF70854206D0204621
:1039E00029463246BDE87040FFF7A5BE822070BD73
:1039F0000148FFF71BBF00BFA42B002007EE102AD1
:103A0000F7EE006AB4EE667AF1EE10FA07EE900A6D
:103A100006EE101A07D076EEC76A66EE266A47EE03
:103A2000876AF0EE667A17EE900A7047F0B510E0FC
:103A30005C1C50F8237050F82460B74204DD40F855
:103A4000247040F823600025E3B24C1EA342EFDB54
:103A500015B900230125F8E7056850F82430EB1A62
:103A6000002BB8BF5B42136001EBD172511050F8CC
:103A70002100F0BD07EE100AB5EEC07AF1EE10FAA3
:103A800007EE901A04DDF5EEC07AF1EE10FA0CD4D0
:103A9000B5EEC07AF1EE10FA09D5F5EEC07AF1EE86
:103AA00010FAD4BF00200120704701207047002089
:103AB000704707292FD8DFE801F004090F14191EF9
:103AC000232903689A6842F03D0203E0036898687E
:103AD00040F474629A6070470368996841F4741204
:103AE000F8E703689A6842F07462F3E70368D868FD
:103AF00040F03D0208E00368D96841F4746203E0D5
:103B00000368DA6842F47412DA6070470368D968AF
:103B100041F07460D860704738B54B1C50F83330B2
:103B200005460C4633B1984728462146BDE8384043
:103B3000FFF7BFBF38BD0000024B00211868FFF738
:103B4000EBBF00BFD40C0020024B01211868FFF727
:103B5000E3BF00BFD40C0020024B02211868FFF71E
:103B6000DBBF00BFD40C0020024B03211868FFF715
:103B7000D3BF00BFD40C0020024B04211868FFF70C
:103B8000CBBF00BFD40C0020024B05211868FFF703
:103B9000C3BF00BFD40C0020024B06211868FFF7FA
:103BA000BBBF00BFD40C0020024B07211868FFF7F1
:103BB000B3BF00BFD40C0020024B00211868FFF7F0
:103BC000ABBF00BFD80C0020024B01211868FFF7E3
:103BD000A3BF00BFD80C0020024B02211868FFF7DA
:103BE0009BBF00BFD80C0020024B03211868FFF7D1
:103BF00093BF00BFD80C0020024B04211868FFF7C8
:103C00008BBF00BFD80C0020024B05211868FFF7BE
:103C100083BF00BFD80C0020024B06211868FFF7B5
:103C20007BBF00BFD80C0020024B07211868FFF7AC
:103C300073BF00BFD80C0020024B586100BF00BF0B
:103C4000704700BF003C0140064B10B553F83030C0
:103C5000044633B198470120A040BDE81040FFF76B
:103C6000EBBF10BDDC0C00200E4B2DE9F0410D46E2
:103C70005C69064600270EE04FF0010000FA06F8E6
:103C800018EA040F06D0084951F8363013B19847A6
:103C900047EA08070136AE42EED93846BDE8F041A2
:103CA000FFF7CABF003C0140DC0C00200020FFF7FA
:103CB000CBBF0120FFF7C8BF0220FFF7C5BF03201D
:103CC000FFF7C2BF0420FFF7BFBF05200921FFF7A0
:103CD000CBBF0A200F21FFF7C7BF10B504460079FC
:103CE00000F008FA2079BDE8104000F0E7B90000C4
:103CF00008B50B48FFF7F1FF0A48FFF7EEFF0A4847
:103D0000FFF7EBFF0948FFF7E8FF0948FFF7E5FF7A
:103D10000848FFF7E2FF0848BDE80840FFF7DDBFAD
:103D20005C0D0020640D00206C0D0020740D00203F
:103D30007C0D0020840D00208C0D0020036870B5E0
:103D40004800032616FA00F41D68E44302F0030657
:103D500004EA050C16FA00F54CEA0506950805F08C
:103D6000030585401E60DE6804EA060C45EA0C0582
:103D70001609DD6006F003069D6816FA00F0920948
:103D800004EA050C02F0010414FA01F2012414FA09
:103D900001F140EA0C009860586820EA010042EA0C
:103DA0000001596070BD0368C80801F0070130B513
:103DB00089000F248C4002F00F0212FA01F1083042
:103DC00053F8205025EA04040C4343F8204030BD4A
:103DD00003681961704703681A6812F4985FFBD191
:103DE000196841F480701860704703681A6812F40B
:103DF000985FFBD1196841F4007018601A6812F4DA
:103E0000985FFBD170470368586841EA00025A6026
:103E100070470368586820EA01025A6070470368D7
:103E2000186820F480621A6070470000014B18681F
:103E3000704700BF0C2D0020016810B58A69044648
:103E400002F47063002283614A618A61FFF7CDFF4B
:103E500020464FF4E061FFF7DCFFFF23637310BDE2
:103E6000F8B5036805695F690446AE789B69FFF79A
:103E7000DDFF6061F80706F0010613D50020E88039
:103E80004FF480612046FFF7BEFF26B121680F681E
:103E900047F480620A60B5F800C0236846EA4C0027
:103EA00018610027B9071ED5AB8876B1012B17D151
:103EB0002046FFF7B4FFE2892046012A02D9FFF726
:103EC0008AFF0DE0FFF791FF0AE0012B0AD0E88896
:103ED000A968471C095CEF802046FFF779FF01E0E5
:103EE000002700E0374607F0840EBEF1800F1BD19B
:103EF000E789AFB1EF88A8687A1CC15DEA802046E7
:103F0000FFF766FFB5F806C0AB889C450BD14FF4B0
:103F100080612046FFF77DFFE389591EE18102E0C1
:103F200000F09AFC00E0002707F08402842A17D1F1
:103F3000E689204656B1FFF74EFF23685F69FA070E
:103F4000FCD5206900270C30206109E0FFF74DFF08
:103F50004FF400712046FFF75CFF02216173374682
:103F60007B0627D52368E8881969AA68431C115481
:103F7000AA889BB2501E8342EB800ED12046FFF7E9
:103F80004EFFE1892046022903D9BDE8F840FFF73A
:103F900022BFBDE8F840FFF728BF93420AD1E3896A
:103FA0005A1E90B2E08110B902216173F8BD2069F8
:103FB0000C302061F8BD00000148FFF751BF00BF81
:103FC000940D00200148FFF74BBF00BFB00D00204B
:103FD0000148FFF731BF00BF940D00200148FFF7F3
:103FE0002BBF00BFB00D002001EBC001880000F125
:103FF00084431A6070470000244B186840F48032F4
:104000001A604FF4A063214A1168890301D4013B6F
:10401000F9D112681D4B920336D51A6CDFF888C0AF
:1040200042F080501A4A1864116841F480401060D0
:1040300099689960986840F400429A609968154AB6
:1040400041F4A05098601449144882E80310144ABF
:104050005A60196841F0807018600C4B196888012B
:10406000FBD5104A40F205611160986820F0030109
:1040700099609A6842F0020098600448836803F0EF
:104080000C0CBCF1080FF8D1704700BF003802409B
:1040900000700040B42B002000BD010580DE8002CE
:1040A00008544007003C0240007A030AFFF7A4BF0F
:1040B000014B13F81000704764CA010838B5044674
:1040C000FFF7F6FF094B0A4903EB440451F820506F
:1040D0006478284621460122FFF786FF28462146BC
:1040E0000022BDE83840FFF77FBF00BF64CA010867
:1040F000BCCA010810B50446FFF7DAFF0549064AB5
:1041000001EB440352F8200059780122BDE8104029
:10411000FFF76ABF64CA010850CA010808B5FFF773
:10412000C7FF024B53F8200008BD00BFB42B00208E
:1041300008B5FFF7F3FF400008BD7047014B0722A9
:104140001A60704710E000E0014B5860FFF7F6BFBF
:1041500010E000E008B572B60548064B1B68016820
:104160004A1C026062B6044B1B6803B1984708BD45
:104170000C2D002010E000E0C42B0020002807DBFD
:10418000421100F01F0101208840024B43F8220039
:10419000704700BF00E100E070B54E1E6FF00705EC
:1041A00001F0010169430831C9B2FF258D40134375
:1041B00013FA01F100687410183004F0010450F88B
:1041C000246026EA05050D4340F8245070BD0231F5
:1041D00038B550F821301546046823B19847236953
:1041E00023EA0505256138BD07218022FFF7EFBFCF
:1041F00000210122FFF7EBBFF8B505680646EB6822
:104200002F691F4017F0400403D0046A0CB1A04787
:104210004024BB0604D5F36913B1984744F0200449
:10422000286920EA04042C61F8BDF8B50768054642
:10423000FB683E691E4016F0100403D084690CB17F
:10424000A0471024300704D56B6913B1984744F098
:104250000804710704D52B6913B1984744F004048E
:10426000B20704D5EB6813B1984744F002043869EB
:1042700020EA04043C61F8BDF8B507680546FB6810
:104280003E691E4016F0400403D0046A0CB1A047FA
:104290004024F30604D5AB6913B1984744F01004E9
:1042A000300704D56B6913B1984744F008047107CF
:1042B00004D52B6913B1984744F00404B20704D520
:1042C000EB6813B1984744F00204F30704D5AB68D8
:1042D00013B1984744F00104386920EA04043C61B2
:1042E000F8BD00210122FFF772BF01EBC001880079
:1042F00000F18440704708B500680C30FFF7F5FF07
:104300000023036008BD08B500680139203089002A
:10431000FFF7EBFF0123036008BD10B504460079E9
:10432000FFF7E8FE2079BDE81040FFF7C7BE0000A8
:104330000D4A10B504461068A0470C490868A0470C
:104340000B480068A0470B4B1868A0470A4A106842
:10435000A0470A490868A04709480068A047094BD8
:104360001868A04710BD00BF780E00207C0E00200A
:10437000800E0020840E0020880E00208C0E00206D
:10438000900E0020940E002038B58B1C044640F897
:10439000232000680D460C30FFF7A7FF6379012149
:1043A00001602079002B23D1A0F10A02504240EB9A
:1043B0000200072D3ED8DFE805F0040909090911BC
:1043C000111600280CBF2C20192003E000280CBF78
:1043D0002E201B20BDE83840FFF7D0BE00280CBFC0
:1043E0002D201A20F6E700280CBF2B201820F1E71B
:1043F0000B38112816D8DFE800F0090B0D1515153C
:104400001515151515151515150F11131C20E1E7B8
:104410001D20DFE71E20DDE73220DBE73620D9E76D
:104420003720D7E70448054A40F2DD11BDE838409F
:1044300000F0DCB938BD00BFD0CA010808CB0108C4
:1044400038B50D4604460235FFF755FF002344F802
:10445000253038BD70B50446481EC3B2032B0D4647
:10446000164604D91C48AD211C4A00F0BFF96179F9
:10447000022904D11848B021194A00F0B7F962792D
:10448000022A27D0012E10D002D3022E22D115E00D
:1044900020462946FFF7D4FF2068691E2030890096
:1044A000FFF723FF0023036070BD20462946FFF776
:1044B00022FF204629466022082303E020462946A1
:1044C00010220023FFF768FE20462946BDE8704011
:1044D000FFF719BF70BD00BFD0CA01080ACB0108A1
:1044E00026CB0108014B1868FFF77EBE780E00202E
:1044F000014B1868FFF77CBE780E0020014B18684E
:10450000FFF77ABE780E0020014B1868FFF78DBECA
:10451000780E0020014B1868FFF7AEBE7C0E00201D
:10452000014B1868FFF7A8BE800E0020014B1868E9
:10453000FFF7A2BE840E0020014B1868FFF79CBE57
:10454000880E0020014B1868FFF7CBBE8C0E0020B0
:10455000014B1868FFF7C5BE900E0020014B18688C
:10456000FFF742BE940E0020014B1868FFF740BED3
:10457000940E0020014B1868FFF73EBE940E0020F9
:10458000014B1868FFF751BE940E0020C388818844
:104590009AB28BB2C188B0F804C0D31A89B21FFA9C
:1045A0008CF2914203D201898AB2501C1B1898B236
:1045B0007047C2888388511C994207D00089904275
:1045C00006D1D3F1010038BF0020704701207047A9
:1045D00000207047C3880268D154C38802899A4278
:1045E00001D0013300E00023C38070470346828876
:1045F000198900689142805C01D0013200E00022FC
:104600009A807047420102F18440C161704738B519
:10461000044690F820020D46FFF780FD1921414322
:10462000A800B1FBF0F26420B2FBF0F529010D09FE
:1046300000FB15231A013232B2FBF0F303F00F0234
:1046400042EA0100236881B2996038BD0068012107
:104650000C30FFF7D7BF006800210C30FFF7D2BF46
:1046600037B50368044619680191019A920610D57E
:104670005D68041D2046EDB2FFF79BFF10B1204698
:10468000FFF7B4FF2046294603B0BDE83040FFF7EE
:10469000A1BF019B1B0610D500F110052846FFF7AE
:1046A00075FF28B128462468FFF7A0FF606004E08A
:1046B0002046FFF7D0FF00BF00BF03B030BD2DE99B
:1046C000F84304460D4617460026BE4210D004F1BA
:1046D0001008404615F80690FFF76BFF40B94046BA
:1046E0004946FFF777FF2046FFF7B0FF0136ECE7BA
:1046F0003046BDE8F88330B5054685B000240A2071
:10470000B1FBF0F300FB131230320DF80420194610
:104710000134002BF3D10BE01DF804108DF80F10BD
:1047200028460DF10F010122FFF7C9FF0028F7D03D
:1047300014F1FF34F0D205B030BD0000014B186811
:10474000FFF78EBF08110020014B1868FFF788BFE4
:104750000C110020014B1868FFF782BF10110020D8
:10476000014B1868FFF77CBFA4190020014B1868A3
:10477000FFF776BFA819002013B504468DF807107F
:1047800020460DF107010122FFF799FF0028F7D01D
:104790001CBD38B505460C4602E02846FFF7ECFF85
:1047A00014F8011B0029F8D138BD202309B1038377
:1047B000704743837047000038B5054662B6094C20
:1047C00009492068FFF7E5FF20682946FFF793FFB6
:1047D00020680A21FFF7D0FF20680D21FFF7CCFFEA
:1047E000FEE700BF0C1100203FCB0108F8B5164EC4
:1047F00005460C4630684FF4E1311746FFF707FFD6
:1048000030681249FFF7C5FF30683946FFF7C1FF2E
:1048100030680F49FFF7BDFF30682946FFF7B9FF41
:1048200030680C49FFF7B5FF30682146FFF763FF9A
:1048300030680A21FFF7A0FF30680D21FFF79CFFC9
:104840004FF0FF30FFF7B8FF0C1100204DCB0108EF
:1048500063CB010864CB0108F8B5114B05211C6836
:1048600021222046FFF76AFA00252E460127B6F5D9
:10487000006F03D0002E08BF012701E04FF0FF3783
:10488000B5F5006F04BFF6190025B542206801D2C6
:10489000012100E00021FFF788FF0135E7E700BFB5
:1048A0004CCA0108000000000000000000000000E9
:1048B000012007E0022005E0032003E0042001E0DE
:1048C0000520FFE7FEE70D4A0121116072B60C4A90
:1048D00000211160064902B4074902B486B00549B7
:1048E0008E467047AFF30080AFF30080AFF30080D7
:1048F00000000061F9FFFFFFB947010814ED00E077
:1049000010E000E0AFF30080AFF30080AFF3008071
:1049100038B505460C4603E02868036828469847E2
:1049200014F8011B0029F7D138BD70B504461546AF
:104930000E4605E0206816F8011B036820469847DC
:1049400015F1FF35F6D270BD026808B513689847B7
:1049500008BD026808B55368984708BD10B50D2119
:104960000446FFF7F1FF20460A21BDE81040FFF79B
:10497000EBBF10B50446FFF7ECFF2046BDE8104042
:10498000FFF7ECBF2DE9F04716461F4690B056EAF8
:10499000070282469DF8609005D1302110B0BDE835
:1049A000F047FFF7D1BF00245FFA89F54FF0000808
:1049B000304639462A46434606F098FC30460DF804
:1049C0000420394643462A4606F090FC06460F4628
:1049D000013456EA0703E7D10DE010AA131913F8C2
:1049E000411C092901D8303100E03731C9B25046A5
:1049F000FFF7AAFF013C002CEFD110B0BDE8F08713
:104A000070B5049C24B901680B68D1B2984770BD99
:104A1000E4B20494BDE87040FFF7B4BF13B50023BF
:104A200000920A460446FFF7EBFF204602B0BDE8BD
:104A30001040FFF793BF07B500230092CAB2FFF7FB
:104A4000DFFF0EBD2DE9F041069F064614461D46C8
:104A50002FB901680B68D1B29847BDE8F081002CEE
:104A600075F1000305DA2D21FFF76EFF644265EB57
:104A70004505FFB2304622462B460697BDE8F04179
:104A8000FFF780BF07B5CB1700920A46FFF7DAFFA2
:104A90000EBD10B50446FFF7F5FF2046BDE81040F7
:104AA000FFF75CBF000000002DE9F34D19460746F3
:104AB000164610461C460022002306F0FFFA9DF819
:104AC0002880012538B13046214643A3D3E900238D
:104AD00006F0EAFA06E03046214641A3D3E9002376
:104AE00006F0D8FA00B90546EDB23046214600225C
:104AF00000236DB106F0C4FA18B138462D21FFF736
:104B000023FF3949384602B0BDE8F04DFFF721BF19
:104B100006F0B6FA28B138462D21FFF715FF04F14B
:104B2000004400250022314B09E0104619460022BE
:104B30002F4B06F05DF9013502460B46EDB24545B7
:104B4000F3D12146304605F077FE82468B4606F0CB
:104B5000E3FB04460D4605F0F3FF02460B465046C4
:104B6000594605F067FE0A238246009338462246DE
:104B70002B468B46FFF766FFB8F1000F1FD0384673
:104B80001C49FFF7E6FE1AE0194B00225046594631
:104B900006F004F88B46824606F09AFA04460A228A
:104BA00038462146FFF76EFF204605F091FF02468A
:104BB0000B465046594605F03DFE82468B4608F1AD
:104BC000FF305FFA80F8B8F1FF0FDDD102B0BDE829
:104BD000F08D00BFAFF30080800350726C92DF4312
:104BE000800350726C92DFC380CB01080000E03F6D
:104BF000000024408FCB01089DF800100091FFF7C2
:104C000053BF13B5049904460091FFF7F5FF204602
:104C100002B0BDE81040FFF7A1BE01EBC001880063
:104C200000F18440704770B5044600F080FD2046D6
:104C30004FF4602100F088FD2668142108363046C4
:104C4000FFF7EBFF0125002105603046FFF7E5FF88
:104C50000560204600F0A6FD20460521BDE8704015
:104C600000F08CBDF8B506460468FFF756FB3568C2
:104C700000212846FFF7D1FF002380220360226035
:104C80000122A2622361E3607379626113B19342EE
:104C90002BD102E04FF4004060644FF6FF71E962EF
:104CA0000022012303F001006FF00706704305F1B5
:104CB000340148F6FF74083041F82240C0B2FF24A6
:104CC00014FA00F6571005F118015FFA87FC51F845
:104CD0002C70013327EA0606682717FA00F4013220
:104CE0003443052B41F82C40DCD128460021FFF746
:104CF00094FF01230360F8BD08B54FF4E0120220D1
:104D00004FF48031FFF7D2F900200146FFF715FA82
:104D100001204FF48061FFF710FA02200021FFF715
:104D20000CFA00210B4800F07BFD0B48FFF70CFA52
:104D3000FEF7DEFF2A20FFF7DDF900F013F800F0A0
:104D400043FD064800F008FD0548BDE80840FFF7B0
:104D5000EFBA00BF000001083F900200274C010895
:104D6000654C010870B53A4C0F2125680122284690
:104D7000FFF719F8374A0321146801222046FFF78C
:104D800012F8354902220E680C213046FFF70BF865
:104D900030460D210222FFF706F830460E2102228E
:104DA000FFF701F830460F210222FEF7FCFF2B48E7
:104DB0000921066801223046FEF7F5FF30460B2137
:104DC0000122FEF7F0FF30460D210122FEF7EBFF36
:104DD00030460E210122FEF7E6FF214B03221E681A
:104DE00006213046FEF7DFFF072130460322FEF79B
:104DF000DAFF304608210322FEF7D5FF30460921AD
:104E00000322FEF7D0FF204604210222FEF7CBFF4B
:104E1000204605210222FEF7C6FF2046002102227D
:104E2000FEF7C1FF204601210222FEF7BCFF284603
:104E300000210222FEF7B7FF284601210222FEF7D9
:104E4000B2FF022128460A46BDE87040FEF7ABBF1C
:104E50003CCA010840CA010848CA01084CCA0108F6
:104E600044CA010810B5794B794C1A682068794B0F
:104E700079497A4C096858605861586258632468C7
:104E800077481A6099601A6199611A6299621A6387
:104E900099631A6499641A6599651A6699661A671E
:104EA0009967C3F88020C3F89020C3F8A020C3F806
:104EB000B020C3F8C020C3F8D020C3F8E020C3F866
:104EC000F020C3F8F4400068664AC3F80401C3F850
:104ED0001401C3F84401C3F8540163481268006820
:104EE000C3F80021C3F80811C3F81021C3F8181142
:104EF000C3F82021C3F83021C3F84021C3F8502162
:104F0000C3F86021C3F87021C3F88021C3F8902151
:104F1000C3F8A021C3F8B021C3F8C021C3F8D02141
:104F2000C3F8E021C3F8F021C3F80002C3F8081267
:104F3000C3F81002C3F81812C3F82002C3F82812ED
:104F4000C3F83002C3F83441C3F83812C3F848122A
:104F5000C3F858124549C3F840020A684449C3F8E7
:104F60006422C3F87422C3F88422C3F89422414A0D
:104F7000C3F85002C3F86002C3F87002C3F880029D
:104F8000C3F89002C3F8A002C3F8B002C3F8C0028D
:104F9000C3F8D002C3F8E002C3F8F0020868116851
:104FA000C3F80003C3F81003C3F82003C3F83003A9
:104FB000C3F84003C3F85003C3F86003C3F8700399
:104FC000C3F88003C3F89003C3F8A003C3F8B00389
:104FD000C3F8C003284AC3F8C413C3F8D003C3F806
:104FE000E003C3F8F00325481268C3F8D413C3F8EC
:104FF000E413C3F8F4130168C3F80024C3F81024C1
:10500000C3F82024C3F83024C3F84024C3F8502444
:10501000C3F86024C3F87024C3F88024C3F8902434
:10502000C3F89414C3F8A024C3F8B024C3F8B4148C
:10503000C3F8C024C3F8D024C3F8D414C3F8E024C0
:10504000C3F8E414C3F8F02410BD00BF3CCA010843
:10505000880E0020AC190020CC1E00207C0E002001
:10506000800E002040CA010844CA0108940E0020A6
:1050700048CA0108840E00204CCA0108780E00209E
:105080000346406818B1597B0022FFF7E3B9704727
:10509000806800F001007047C06880B2704700006F
:1050A0000E38C0B21D289ABF024B53F820000020D2
:1050B000704700BFD4CB01082DE9F04F8BB01E46DE
:1050C0009DF85030044600790D4617460993FEF7C7
:1050D000EFFF012840F0A180072F40F09E8052484A
:1050E00040F2A511514AFFF781FBFF2306E050482B
:1050F000C7197F78049702E04D49CB5D0493002DDA
:1051000014BF4FF48072002246F400761643204606
:10511000079600F09EFB2079FFF7C2FF00286BD0B6
:10512000067847784FEA061A424E82780AEB060361
:10513000C07808934FEA071B110103010BEB060728
:10514000089801EB0609059103EB06080693FFF7A3
:1051500097FF3846FFF794FF4846FFF791FF404618
:10516000FFF78EFF94F804C0397BBCF10F0F18D8FD
:1051700025B95AF806000522FEF715FE5BF8060071
:10518000397B0522FEF70FFE05990522885999F80B
:105190000C10FEF708FE069898F80C1080590522AE
:1051A00017E025B95AF806000622FEF7FCFD5BF869
:1051B0000600397B0622FEF7F6FD059B99F80C10D8
:1051C00098590622FEF7EFFD069A98F80C109059B0
:1051D0000622FEF7E8FD3B7B089A127B009399F8C4
:1051E0000C10019198F80C0002905AF8061028460D
:1051F0005BF8063000F037FB20463DB10499099A70
:10520000079B0BB0BDE8F04F00F096BB0999079AD9
:105210000BB0BDE8F04F00F08CBB2079FEF748FFE3
:1052200001287FF469AF62E791CB010808CB010840
:1052300030CF0108AC190020013910B5044603290C
:105240000DD8DFE801F00204080A084B00E0084B23
:105250001B68036008E0074BFAE7074BF8E70748CD
:105260006921074AFFF7C2FA204610BDF81E002048
:10527000FC1E0020001F0020041F002091CB01080D
:1052800008CB0108032B37B50D46144607D90A4849
:105290000A4A732103B0BDE83040FFF7A7BADBB27A
:1052A0000093012100682A468C4214BF802300230A
:1052B000FFF702FF03B030BD91CB010808CB010816
:1052C00013B5016804460868036813F0060F05D19A
:1052D0001FE01868FFF7E0FEADF8060022681068CE
:1052E000FFF7D6FE23680028F3D11A68916801F011
:1052F000020C5FFA8CF00028F8D0916821F07F0052
:1053000010F0FF0FF9D1184602B0BDE8104000F0D0
:10531000FABA02B010BDF8B504460D46174600268D
:105320000BE023681868FFF7B3FE0028F9D0206867
:105330000068FFF7B1FEA8550136BE42F1D1F8BDB5
:1053400007B5012201A9FFF7E6FF9DF804000EBD95
:10535000F8B507460E461546002405E031192A1B0C
:10536000386800F0B5FA2418AC42F7D3F8BD07B599
:1053700002AB03F8011D19460122FFF7E9FF0EBD3C
:1053800010B50446FFF7F3FF2046BDE81040FFF7D5
:10539000D7BF08B503681879FFF782FE007808BD0B
:1053A000014B1868704700BF0C2D002007B502AAFA
:1053B00002F8041D01688B681146012298470EBD52
:1053C0002DE9F0410C46174600F00AFBF0B100F061
:1053D00005FBD8B1ACB9BDE8F081FFF7E1FF0646A7
:1053E0004546BD4212D2FFF7DBFF801B31280DD8A6
:1053F0006019791B00F0D8FA00EB05084545ECD19F
:10540000EEE7FFF7CDFF00250646EAE7BDE8F081AD
:1054100038B5044608460D4602F01EFA02462068DA
:10542000294683682046984738BD0000014B036039
:10543000704700BF70CB010810B50446FFF7F6FFB8
:10544000014B2046236010BD58CC010800F082BA01
:1054500000F0B0BA70B516460D4649B1002404E01C
:105460002819311B00F0A8FA2418B442F8D300E040
:105470000C46204670BD07B5012201A9FFF7EAFFDF
:105480009DF804000EBD00000148FFF7D5BF00BF26
:10549000C82B0020FEE70000054B03EB001000F1D5
:1054A0000803806810B1997900F07DB9704700BF9A
:1054B000AC1900203823434318460138FDD8704703
:1054C00038B50546002404E04FF47A70FFF7F2FF88
:1054D0000134AC42F8D138BD4F2870B535D8082911
:1054E00018D8DFE801F01E2105080B0E0511140085
:1054F000002422461AE00024032217E0002404229C
:1055000014E00024082211E0012422220EE00124EC
:1055100062220BE00D480E4A4721BDE87040FFF7BC
:1055200065B90024212201E000246122094B000119
:105530001E18317B1858FEF701FC706828B1717B8A
:105540002246BDE87040FEF785BF70BD68CC0108FB
:1055500008CB0108AC1900204F280CD8064B0001DD
:105560001A18127B1B5801201B6810FA02F209B1AD
:105570001A8370475A837047AC19002006490023EC
:105580000B6080F8203080F8213080F8223080F8DD
:10559000433080F844307047AC1E002038B580F8A6
:1055A00045200C4680F84610104601211546FFF7AD
:1055B00093FF20460121FFF78FFF28460121FFF7C7
:1055C000CBFF20460121BDE83840FFF7C5BF0000F2
:1055D0000148FFF7D3BF00BFCC2B0020064B196852
:1055E0000868B0E8F00F80F309884FF0000080F3FE
:1055F00011884EF00D0E70478C2C0020704700BFB4
:10560000EFF309800C4B1A6820E9F00F10602DE9C8
:1056100008404FF0BF0080F3118800F011F84FF000
:10562000000080F31188BDE8084019680868B0E8F8
:10563000F00F80F3098870478C2C0020704700BF62
:105640002F4838B5036813B101222E4B52E02E4C7F
:10565000236825681A68296B8A4204D82068216863
:10566000343100F063F820682849006B1422264D7D
:1056700002F006F840B128682968343100F056F885
:1056800002E01368591E1160214A14231068214951
:10569000584308580028F4D0106803FB00104168F4
:1056A00000F1080C4A686245426004BF52684260DB
:1056B00043681548DA682260174A1168F1B1036837
:1056C00016495B6C0C689C4218D0154B154D1C6834
:1056D0002D680834A5420FD902681348526C0A603D
:1056E0001968006808601968081D186019680A6060
:1056F0001A6804321A6038BD0023136038BD00BF39
:10570000902C0020842C00208C2C0020A9CC010897
:10571000142C00201C2C0020802C0020B01E002007
:10572000882C0020942C0020182C0020FEE710B5B7
:1057300004460079FEF7DEFC2079042803D1BDE899
:105740001040FEF7BBBC10BD03689A6822F0706081
:1057500041EA00029A607047054910B5044608689E
:10576000A04704480068A047034B1868A04710BD35
:10577000CC1E0020D01E0020D41E0020002370B5B7
:105780001A461C461D4601FA03F6072AD8BF3543C0
:10579000013203330A2A44EA0604F4D10368DD60C7
:1057A0001C6170BD70470368D86A20F0F872DA6235
:1057B0005963986840F080429A6019688A07FCD55E
:1057C000DB6C98B270470000034A0448516801EA54
:1057D00000035360704700BF00230140E030FCFF2E
:1057E00000284FEA011105DA054A00F00F0083187E
:1057F00019767047034A831883F80013704700BF77
:10580000FCEC00E000E100E021F0604C2CF07F02B5
:10581000024B42EA00019960704700BF00ED00E0D2
:1058200010B5FFF7F1FF002460B20F210134FFF73C
:10583000D7FF3C2CF8D14FF0FF300F21BDE81040CE
:10584000FFF7CEBF01EBC001880000F184431A606E
:10585000704710B504460079FEF74CFC2079BDE88E
:105860001040FEF72BBCF8B51C469DF818709DF84B
:105870001C609DF82050034698B121B1084611469E
:105880002122FEF75BFA204639462222FEF756FA1D
:10589000204631460A22FEF751FA204629462222A6
:1058A00012E021B1084611461A46FEF747FA204693
:1058B00039460022FEF742FA204631462222FEF700
:1058C0003DFA204629460022BDE8F840FEF736BAE8
:1058D000036830B51C68002004F4006406E00CB9CD
:1058E0000D5C01E031F81050DD6001309D6805F07D
:1058F0000205EDB20DB19042F1D130BD0068062134
:105900000122FFF79FBF006806210022FFF79ABF20
:1059100038B50D46016804464B6823F0E0024A6042
:10592000FFF7F1FF236820461D60BDE83840FFF710
:10593000E5BF1143FFF7ECBF41F0040C4CEA030153
:105940001143FFF7E5BF4FF4006309B103837047CC
:105950004383704713B50E480B210468612220462B
:10596000FEF7ECF900212068FFF7EDFF0949084632
:105970000138FDD801212068FFF7E5FF064B0748F5
:1059800000930121064A074B00F01DF91CBD00BF22
:1059900048CA010800E6AA00FC1F0020102D0020C4
:1059A000C81F0020381F002010B50C4601F0D6FC9F
:1059B000204610BD01F022BD70B50E460446FFF72B
:1059C000F9FF0025B04238BF064603E001F02EFD86
:1059D00060550135B542F9D1284670BD01207047A8
:1059E00001207047014801F0CFB900BF102D002001
:1059F000D0F8E41510B5044608698047032384F8FD
:105A00001231002010BD042108B580F81211D0F821
:105A1000E405C3689847002008BD08B5D0F8E03514
:105A2000DB6903B19847002008BDD0F8E01508B540
:105A30000B6A9847002008BDD0F8E01508B54B6AFE
:105A40009847002008BD002110B5402204460B46AF
:105A500000F0E7FC802140220023204600F0E1FC1A
:105A6000D4F8E405012184F812114368A07898471E
:105A7000002010BD13B56946044600F025F99DF8D5
:105A80000010204601F01F03012B06D0022B08D086
:105A90005BB9694600F0C8F90BE0694600F0ACF963
:105AA00007E0694600F048F903E001F0800100F0EA
:105AB00021FD00201CBD38B5044600293CD190F8DA
:105AC0001131022B42D1D0F83421D0F820319A4242
:105AD00011D9C178D21A0129C0F8342104D1D0F8E3
